{
	"counter.sol": {
		"Counter": {
			"abi": [
				{
					"inputs": [
						{
							"internalType": "int256",
							"name": "value",
							"type": "int256"
						}
					],
					"name": "add",
					"outputs": [],
					"stateMutability": "nonpayable",
					"type": "function"
				},
				{
					"inputs": [],
					"name": "count",
					"outputs": [
						{
							"internalType": "int256",
							"name": "",
							"type": "int256"
						}
					],
					"stateMutability": "view",
					"type": "function"
				},
				{
					"inputs": [],
					"name": "getCount",
					"outputs": [
						{
							"internalType": "int256",
							"name": "",
							"type": "int256"
						}
					],
					"stateMutability": "view",
					"type": "function"
				},
				{
					"inputs": [
						{
							"internalType": "int256",
							"name": "value",
							"type": "int256"
						}
					],
					"name": "subtract",
					"outputs": [],
					"stateMutability": "nonpayable",
					"type": "function"
				}
			],
			"devdoc": {
				"kind": "dev",
				"methods": {},
				"version": 1
			},
			"evm": {
				"assembly": "    /* \"counter.sol\":60:517  contract Counter {... */\n  mstore(0x40, 0x80)\n  callvalue\n  dup1\n  iszero\n  tag_1\n  jumpi\n  0x00\n  dup1\n  revert\ntag_1:\n  pop\n  dataSize(sub_0)\n  dup1\n  dataOffset(sub_0)\n  0x00\n  codecopy\n  0x00\n  return\nstop\n\nsub_0: assembly {\n        /* \"counter.sol\":60:517  contract Counter {... */\n      mstore(0x40, 0x80)\n      callvalue\n      dup1\n      iszero\n      tag_1\n      jumpi\n      0x00\n      dup1\n      revert\n    tag_1:\n      pop\n      jumpi(tag_2, lt(calldatasize, 0x04))\n      shr(0xe0, calldataload(0x00))\n      dup1\n      0x06661abd\n      eq\n      tag_3\n      jumpi\n      dup1\n      0x87db03b7\n      eq\n      tag_4\n      jumpi\n      dup1\n      0xa87d942c\n      eq\n      tag_5\n      jumpi\n      dup1\n      0xae0f6166\n      eq\n      tag_6\n      jumpi\n    tag_2:\n      0x00\n      dup1\n      revert\n        /* \"counter.sol\":84:103  int256 public count */\n    tag_3:\n      tag_7\n      tag_8\n      jump\t// in\n    tag_7:\n      mload(0x40)\n      tag_9\n      swap2\n      swap1\n      tag_10\n      jump\t// in\n    tag_9:\n      mload(0x40)\n      dup1\n      swap2\n      sub\n      swap1\n      return\n        /* \"counter.sol\":295:371  function add(int256 value) public {... */\n    tag_4:\n      tag_11\n      0x04\n      dup1\n      calldatasize\n      sub\n      dup2\n      add\n      swap1\n      tag_12\n      swap2\n      swap1\n      tag_13\n      jump\t// in\n    tag_12:\n      tag_14\n      jump\t// in\n    tag_11:\n      stop\n        /* \"counter.sol\":160:240  function getCount() public view returns (int256) {... */\n    tag_5:\n      tag_15\n      tag_16\n      jump\t// in\n    tag_15:\n      mload(0x40)\n      tag_17\n      swap2\n      swap1\n      tag_10\n      jump\t// in\n    tag_17:\n      mload(0x40)\n      dup1\n      swap2\n      sub\n      swap1\n      return\n        /* \"counter.sol\":433:514  function subtract(int256 value) public {... */\n    tag_6:\n      tag_18\n      0x04\n      dup1\n      calldatasize\n      sub\n      dup2\n      add\n      swap1\n      tag_19\n      swap2\n      swap1\n      tag_13\n      jump\t// in\n    tag_19:\n      tag_20\n      jump\t// in\n    tag_18:\n      stop\n        /* \"counter.sol\":84:103  int256 public count */\n    tag_8:\n      sload(0x00)\n      dup2\n      jump\t// out\n        /* \"counter.sol\":295:371  function add(int256 value) public {... */\n    tag_14:\n        /* \"counter.sol\":349:354  value */\n      dup1\n        /* \"counter.sol\":340:345  count */\n      0x00\n      dup1\n        /* \"counter.sol\":340:354  count += value */\n      dup3\n      dup3\n      sload\n      tag_22\n      swap2\n      swap1\n      tag_23\n      jump\t// in\n    tag_22:\n      swap3\n      pop\n      pop\n      dup2\n      swap1\n      sstore\n      pop\n        /* \"counter.sol\":295:371  function add(int256 value) public {... */\n      pop\n      jump\t// out\n        /* \"counter.sol\":160:240  function getCount() public view returns (int256) {... */\n    tag_16:\n        /* \"counter.sol\":201:207  int256 */\n      0x00\n        /* \"counter.sol\":227:232  count */\n      dup1\n      sload\n        /* \"counter.sol\":220:232  return count */\n      swap1\n      pop\n        /* \"counter.sol\":160:240  function getCount() public view returns (int256) {... */\n      swap1\n      jump\t// out\n        /* \"counter.sol\":433:514  function subtract(int256 value) public {... */\n    tag_20:\n        /* \"counter.sol\":492:497  value */\n      dup1\n        /* \"counter.sol\":483:488  count */\n      0x00\n      dup1\n        /* \"counter.sol\":483:497  count -= value */\n      dup3\n      dup3\n      sload\n      tag_26\n      swap2\n      swap1\n      tag_27\n      jump\t// in\n    tag_26:\n      swap3\n      pop\n      pop\n      dup2\n      swap1\n      sstore\n      pop\n        /* \"counter.sol\":433:514  function subtract(int256 value) public {... */\n      pop\n      jump\t// out\n        /* \"#utility.yul\":7:83   */\n    tag_28:\n        /* \"#utility.yul\":43:50   */\n      0x00\n        /* \"#utility.yul\":72:77   */\n      dup2\n        /* \"#utility.yul\":61:77   */\n      swap1\n      pop\n        /* \"#utility.yul\":7:83   */\n      swap2\n      swap1\n      pop\n      jump\t// out\n        /* \"#utility.yul\":89:204   */\n    tag_29:\n        /* \"#utility.yul\":174:197   */\n      tag_39\n        /* \"#utility.yul\":191:196   */\n      dup2\n        /* \"#utility.yul\":174:197   */\n      tag_28\n      jump\t// in\n    tag_39:\n        /* \"#utility.yul\":169:172   */\n      dup3\n        /* \"#utility.yul\":162:198   */\n      mstore\n        /* \"#utility.yul\":89:204   */\n      pop\n      pop\n      jump\t// out\n        /* \"#utility.yul\":210:428   */\n    tag_10:\n        /* \"#utility.yul\":301:305   */\n      0x00\n        /* \"#utility.yul\":339:341   */\n      0x20\n        /* \"#utility.yul\":328:337   */\n      dup3\n        /* \"#utility.yul\":324:342   */\n      add\n        /* \"#utility.yul\":316:342   */\n      swap1\n      pop\n        /* \"#utility.yul\":352:421   */\n      tag_41\n        /* \"#utility.yul\":418:419   */\n      0x00\n        /* \"#utility.yul\":407:416   */\n      dup4\n        /* \"#utility.yul\":403:420   */\n      add\n        /* \"#utility.yul\":394:400   */\n      dup5\n        /* \"#utility.yul\":352:421   */\n      tag_29\n      jump\t// in\n    tag_41:\n        /* \"#utility.yul\":210:428   */\n      swap3\n      swap2\n      pop\n      pop\n      jump\t// out\n        /* \"#utility.yul\":515:632   */\n    tag_31:\n        /* \"#utility.yul\":624:625   */\n      0x00\n        /* \"#utility.yul\":621:622   */\n      dup1\n        /* \"#utility.yul\":614:626   */\n      revert\n        /* \"#utility.yul\":761:881   */\n    tag_33:\n        /* \"#utility.yul\":833:856   */\n      tag_46\n        /* \"#utility.yul\":850:855   */\n      dup2\n        /* \"#utility.yul\":833:856   */\n      tag_28\n      jump\t// in\n    tag_46:\n        /* \"#utility.yul\":826:831   */\n      dup2\n        /* \"#utility.yul\":823:857   */\n      eq\n        /* \"#utility.yul\":813:875   */\n      tag_47\n      jumpi\n        /* \"#utility.yul\":871:872   */\n      0x00\n        /* \"#utility.yul\":868:869   */\n      dup1\n        /* \"#utility.yul\":861:873   */\n      revert\n        /* \"#utility.yul\":813:875   */\n    tag_47:\n        /* \"#utility.yul\":761:881   */\n      pop\n      jump\t// out\n        /* \"#utility.yul\":887:1024   */\n    tag_34:\n        /* \"#utility.yul\":932:937   */\n      0x00\n        /* \"#utility.yul\":970:976   */\n      dup2\n        /* \"#utility.yul\":957:977   */\n      calldataload\n        /* \"#utility.yul\":948:977   */\n      swap1\n      pop\n        /* \"#utility.yul\":986:1018   */\n      tag_49\n        /* \"#utility.yul\":1012:1017   */\n      dup2\n        /* \"#utility.yul\":986:1018   */\n      tag_33\n      jump\t// in\n    tag_49:\n        /* \"#utility.yul\":887:1024   */\n      swap3\n      swap2\n      pop\n      pop\n      jump\t// out\n        /* \"#utility.yul\":1030:1357   */\n    tag_13:\n        /* \"#utility.yul\":1088:1094   */\n      0x00\n        /* \"#utility.yul\":1137:1139   */\n      0x20\n        /* \"#utility.yul\":1125:1134   */\n      dup3\n        /* \"#utility.yul\":1116:1123   */\n      dup5\n        /* \"#utility.yul\":1112:1135   */\n      sub\n        /* \"#utility.yul\":1108:1140   */\n      slt\n        /* \"#utility.yul\":1105:1224   */\n      iszero\n      tag_51\n      jumpi\n        /* \"#utility.yul\":1143:1222   */\n      tag_52\n      tag_31\n      jump\t// in\n    tag_52:\n        /* \"#utility.yul\":1105:1224   */\n    tag_51:\n        /* \"#utility.yul\":1263:1264   */\n      0x00\n        /* \"#utility.yul\":1288:1340   */\n      tag_53\n        /* \"#utility.yul\":1332:1339   */\n      dup5\n        /* \"#utility.yul\":1323:1329   */\n      dup3\n        /* \"#utility.yul\":1312:1321   */\n      dup6\n        /* \"#utility.yul\":1308:1330   */\n      add\n        /* \"#utility.yul\":1288:1340   */\n      tag_34\n      jump\t// in\n    tag_53:\n        /* \"#utility.yul\":1278:1340   */\n      swap2\n      pop\n        /* \"#utility.yul\":1234:1350   */\n      pop\n        /* \"#utility.yul\":1030:1357   */\n      swap3\n      swap2\n      pop\n      pop\n      jump\t// out\n        /* \"#utility.yul\":1363:1543   */\n    tag_35:\n        /* \"#utility.yul\":1411:1488   */\n      0x4e487b7100000000000000000000000000000000000000000000000000000000\n        /* \"#utility.yul\":1408:1409   */\n      0x00\n        /* \"#utility.yul\":1401:1489   */\n      mstore\n        /* \"#utility.yul\":1508:1512   */\n      0x11\n        /* \"#utility.yul\":1505:1506   */\n      0x04\n        /* \"#utility.yul\":1498:1513   */\n      mstore\n        /* \"#utility.yul\":1532:1536   */\n      0x24\n        /* \"#utility.yul\":1529:1530   */\n      0x00\n        /* \"#utility.yul\":1522:1537   */\n      revert\n        /* \"#utility.yul\":1549:1924   */\n    tag_23:\n        /* \"#utility.yul\":1588:1591   */\n      0x00\n        /* \"#utility.yul\":1607:1626   */\n      tag_56\n        /* \"#utility.yul\":1624:1625   */\n      dup3\n        /* \"#utility.yul\":1607:1626   */\n      tag_28\n      jump\t// in\n    tag_56:\n        /* \"#utility.yul\":1602:1626   */\n      swap2\n      pop\n        /* \"#utility.yul\":1640:1659   */\n      tag_57\n        /* \"#utility.yul\":1657:1658   */\n      dup4\n        /* \"#utility.yul\":1640:1659   */\n      tag_28\n      jump\t// in\n    tag_57:\n        /* \"#utility.yul\":1635:1659   */\n      swap3\n      pop\n        /* \"#utility.yul\":1682:1683   */\n      dup3\n        /* \"#utility.yul\":1679:1680   */\n      dup3\n        /* \"#utility.yul\":1675:1684   */\n      add\n        /* \"#utility.yul\":1668:1684   */\n      swap1\n      pop\n        /* \"#utility.yul\":1880:1881   */\n      dup3\n        /* \"#utility.yul\":1875:1878   */\n      dup2\n        /* \"#utility.yul\":1871:1882   */\n      slt\n        /* \"#utility.yul\":1864:1883   */\n      iszero\n        /* \"#utility.yul\":1860:1861   */\n      0x00\n        /* \"#utility.yul\":1857:1858   */\n      dup4\n        /* \"#utility.yul\":1853:1862   */\n      slt\n        /* \"#utility.yul\":1849:1884   */\n      and\n        /* \"#utility.yul\":1832:1833   */\n      dup4\n        /* \"#utility.yul\":1827:1830   */\n      dup3\n        /* \"#utility.yul\":1823:1834   */\n      slt\n        /* \"#utility.yul\":1818:1819   */\n      0x00\n        /* \"#utility.yul\":1815:1816   */\n      dup5\n        /* \"#utility.yul\":1811:1820   */\n      slt\n        /* \"#utility.yul\":1804:1821   */\n      iszero\n        /* \"#utility.yul\":1800:1835   */\n      and\n        /* \"#utility.yul\":1784:1894   */\n      or\n        /* \"#utility.yul\":1781:1917   */\n      iszero\n      tag_58\n      jumpi\n        /* \"#utility.yul\":1897:1915   */\n      tag_59\n      tag_35\n      jump\t// in\n    tag_59:\n        /* \"#utility.yul\":1781:1917   */\n    tag_58:\n        /* \"#utility.yul\":1549:1924   */\n      swap3\n      swap2\n      pop\n      pop\n      jump\t// out\n        /* \"#utility.yul\":1930:2302   */\n    tag_27:\n        /* \"#utility.yul\":1969:1973   */\n      0x00\n        /* \"#utility.yul\":1989:2008   */\n      tag_61\n        /* \"#utility.yul\":2006:2007   */\n      dup3\n        /* \"#utility.yul\":1989:2008   */\n      tag_28\n      jump\t// in\n    tag_61:\n        /* \"#utility.yul\":1984:2008   */\n      swap2\n      pop\n        /* \"#utility.yul\":2022:2041   */\n      tag_62\n        /* \"#utility.yul\":2039:2040   */\n      dup4\n        /* \"#utility.yul\":2022:2041   */\n      tag_28\n      jump\t// in\n    tag_62:\n        /* \"#utility.yul\":2017:2041   */\n      swap3\n      pop\n        /* \"#utility.yul\":2065:2066   */\n      dup3\n        /* \"#utility.yul\":2062:2063   */\n      dup3\n        /* \"#utility.yul\":2058:2067   */\n      sub\n        /* \"#utility.yul\":2050:2067   */\n      swap1\n      pop\n        /* \"#utility.yul\":2259:2260   */\n      dup2\n        /* \"#utility.yul\":2253:2257   */\n      dup2\n        /* \"#utility.yul\":2249:2261   */\n      slt\n        /* \"#utility.yul\":2245:2246   */\n      0x00\n        /* \"#utility.yul\":2242:2243   */\n      dup5\n        /* \"#utility.yul\":2238:2247   */\n      slt\n        /* \"#utility.yul\":2234:2262   */\n      and\n        /* \"#utility.yul\":2217:2218   */\n      dup3\n        /* \"#utility.yul\":2211:2215   */\n      dup3\n        /* \"#utility.yul\":2207:2219   */\n      sgt\n        /* \"#utility.yul\":2202:2203   */\n      0x00\n        /* \"#utility.yul\":2199:2200   */\n      dup6\n        /* \"#utility.yul\":2195:2204   */\n      slt\n        /* \"#utility.yul\":2188:2205   */\n      iszero\n        /* \"#utility.yul\":2184:2220   */\n      and\n        /* \"#utility.yul\":2168:2272   */\n      or\n        /* \"#utility.yul\":2165:2295   */\n      iszero\n      tag_63\n      jumpi\n        /* \"#utility.yul\":2275:2293   */\n      tag_64\n      tag_35\n      jump\t// in\n    tag_64:\n        /* \"#utility.yul\":2165:2295   */\n    tag_63:\n        /* \"#utility.yul\":1930:2302   */\n      swap3\n      swap2\n      pop\n      pop\n      jump\t// out\n\n    auxdata: 0xa2646970667358221220b9af3970bf75f992163a567cfd6b0039bbb5ecb86f5d696e6f92c9257c35176664736f6c634300081a0033\n}\n",
				"bytecode": {
					"linkReferences": {},
					"object": "6080604052348015600e575f80fd5b506102718061001c5f395ff3fe608060405234801561000f575f80fd5b506004361061004a575f3560e01c806306661abd1461004e57806387db03b71461006c578063a87d942c14610088578063ae0f6166146100a6575b5f80fd5b6100566100c2565b604051610063919061011b565b60405180910390f35b61008660048036038101906100819190610162565b6100c7565b005b6100906100e1565b60405161009d919061011b565b60405180910390f35b6100c060048036038101906100bb9190610162565b6100e9565b005b5f5481565b805f808282546100d791906101ba565b9250508190555050565b5f8054905090565b805f808282546100f991906101fb565b9250508190555050565b5f819050919050565b61011581610103565b82525050565b5f60208201905061012e5f83018461010c565b92915050565b5f80fd5b61014181610103565b811461014b575f80fd5b50565b5f8135905061015c81610138565b92915050565b5f6020828403121561017757610176610134565b5b5f6101848482850161014e565b91505092915050565b7f4e487b71000000000000000000000000000000000000000000000000000000005f52601160045260245ffd5b5f6101c482610103565b91506101cf83610103565b92508282019050828112155f8312168382125f8412151617156101f5576101f461018d565b5b92915050565b5f61020582610103565b915061021083610103565b925082820390508181125f8412168282135f8512151617156102355761023461018d565b5b9291505056fea2646970667358221220b9af3970bf75f992163a567cfd6b0039bbb5ecb86f5d696e6f92c9257c35176664736f6c634300081a0033",
					"opcodes": "PUSH1 0x80 PUSH1 0x40 MSTORE CALLVALUE DUP1 ISZERO PUSH1 0xE JUMPI PUSH0 DUP1 REVERT JUMPDEST POP PUSH2 0x271 DUP1 PUSH2 0x1C PUSH0 CODECOPY PUSH0 RETURN INVALID PUSH1 0x80 PUSH1 0x40 MSTORE CALLVALUE DUP1 ISZERO PUSH2 0xF JUMPI PUSH0 DUP1 REVERT JUMPDEST POP PUSH1 0x4 CALLDATASIZE LT PUSH2 0x4A JUMPI PUSH0 CALLDATALOAD PUSH1 0xE0 SHR DUP1 PUSH4 0x6661ABD EQ PUSH2 0x4E JUMPI DUP1 PUSH4 0x87DB03B7 EQ PUSH2 0x6C JUMPI DUP1 PUSH4 0xA87D942C EQ PUSH2 0x88 JUMPI DUP1 PUSH4 0xAE0F6166 EQ PUSH2 0xA6 JUMPI JUMPDEST PUSH0 DUP1 REVERT JUMPDEST PUSH2 0x56 PUSH2 0xC2 JUMP JUMPDEST PUSH1 0x40 MLOAD PUSH2 0x63 SWAP2 SWAP1 PUSH2 0x11B JUMP JUMPDEST PUSH1 0x40 MLOAD DUP1 SWAP2 SUB SWAP1 RETURN JUMPDEST PUSH2 0x86 PUSH1 0x4 DUP1 CALLDATASIZE SUB DUP2 ADD SWAP1 PUSH2 0x81 SWAP2 SWAP1 PUSH2 0x162 JUMP JUMPDEST PUSH2 0xC7 JUMP JUMPDEST STOP JUMPDEST PUSH2 0x90 PUSH2 0xE1 JUMP JUMPDEST PUSH1 0x40 MLOAD PUSH2 0x9D SWAP2 SWAP1 PUSH2 0x11B JUMP JUMPDEST PUSH1 0x40 MLOAD DUP1 SWAP2 SUB SWAP1 RETURN JUMPDEST PUSH2 0xC0 PUSH1 0x4 DUP1 CALLDATASIZE SUB DUP2 ADD SWAP1 PUSH2 0xBB SWAP2 SWAP1 PUSH2 0x162 JUMP JUMPDEST PUSH2 0xE9 JUMP JUMPDEST STOP JUMPDEST PUSH0 SLOAD DUP2 JUMP JUMPDEST DUP1 PUSH0 DUP1 DUP3 DUP3 SLOAD PUSH2 0xD7 SWAP2 SWAP1 PUSH2 0x1BA JUMP JUMPDEST SWAP3 POP POP DUP2 SWAP1 SSTORE POP POP JUMP JUMPDEST PUSH0 DUP1 SLOAD SWAP1 POP SWAP1 JUMP JUMPDEST DUP1 PUSH0 DUP1 DUP3 DUP3 SLOAD PUSH2 0xF9 SWAP2 SWAP1 PUSH2 0x1FB JUMP JUMPDEST SWAP3 POP POP DUP2 SWAP1 SSTORE POP POP JUMP JUMPDEST PUSH0 DUP2 SWAP1 POP SWAP2 SWAP1 POP JUMP JUMPDEST PUSH2 0x115 DUP2 PUSH2 0x103 JUMP JUMPDEST DUP3 MSTORE POP POP JUMP JUMPDEST PUSH0 PUSH1 0x20 DUP3 ADD SWAP1 POP PUSH2 0x12E PUSH0 DUP4 ADD DUP5 PUSH2 0x10C JUMP JUMPDEST SWAP3 SWAP2 POP POP JUMP JUMPDEST PUSH0 DUP1 REVERT JUMPDEST PUSH2 0x141 DUP2 PUSH2 0x103 JUMP JUMPDEST DUP2 EQ PUSH2 0x14B JUMPI PUSH0 DUP1 REVERT JUMPDEST POP JUMP JUMPDEST PUSH0 DUP2 CALLDATALOAD SWAP1 POP PUSH2 0x15C DUP2 PUSH2 0x138 JUMP JUMPDEST SWAP3 SWAP2 POP POP JUMP JUMPDEST PUSH0 PUSH1 0x20 DUP3 DUP5 SUB SLT ISZERO PUSH2 0x177 JUMPI PUSH2 0x176 PUSH2 0x134 JUMP JUMPDEST JUMPDEST PUSH0 PUSH2 0x184 DUP5 DUP3 DUP6 ADD PUSH2 0x14E JUMP JUMPDEST SWAP2 POP POP SWAP3 SWAP2 POP POP JUMP JUMPDEST PUSH32 0x4E487B7100000000000000000000000000000000000000000000000000000000 PUSH0 MSTORE PUSH1 0x11 PUSH1 0x4 MSTORE PUSH1 0x24 PUSH0 REVERT JUMPDEST PUSH0 PUSH2 0x1C4 DUP3 PUSH2 0x103 JUMP JUMPDEST SWAP2 POP PUSH2 0x1CF DUP4 PUSH2 0x103 JUMP JUMPDEST SWAP3 POP DUP3 DUP3 ADD SWAP1 POP DUP3 DUP2 SLT ISZERO PUSH0 DUP4 SLT AND DUP4 DUP3 SLT PUSH0 DUP5 SLT ISZERO AND OR ISZERO PUSH2 0x1F5 JUMPI PUSH2 0x1F4 PUSH2 0x18D JUMP JUMPDEST JUMPDEST SWAP3 SWAP2 POP POP JUMP JUMPDEST PUSH0 PUSH2 0x205 DUP3 PUSH2 0x103 JUMP JUMPDEST SWAP2 POP PUSH2 0x210 DUP4 PUSH2 0x103 JUMP JUMPDEST SWAP3 POP DUP3 DUP3 SUB SWAP1 POP DUP2 DUP2 SLT PUSH0 DUP5 SLT AND DUP3 DUP3 SGT PUSH0 DUP6 SLT ISZERO AND OR ISZERO PUSH2 0x235 JUMPI PUSH2 0x234 PUSH2 0x18D JUMP JUMPDEST JUMPDEST SWAP3 SWAP2 POP POP JUMP INVALID LOG2 PUSH5 0x6970667358 0x22 SLT KECCAK256 0xB9 0xAF CODECOPY PUSH17 0xBF75F992163A567CFD6B0039BBB5ECB86F TSTORE PUSH10 0x6E6F92C9257C35176664 PUSH20 0x6F6C634300081A00330000000000000000000000 "
				},
				"gasEstimates": {
					"creation": {
						"codeDepositCost": "125000",
						"executionCost": "169",
						"totalCost": "125169"
					},
					"external": {
						"add(int256)": "infinite",
						"count()": "2402",
						"getCount()": "2454",
						"subtract(int256)": "infinite"
					}
				},
				"methodIdentifiers": {
					"add(int256)": "87db03b7",
					"count()": "06661abd",
					"getCount()": "a87d942c",
					"subtract(int256)": "ae0f6166"
				}
			},
			"storageLayout": {
				"storage": [
					{
						"astId": 3,
						"contract": "counter.sol:Counter",
						"label": "count",
						"offset": 0,
						"slot": "0",
						"type": "t_int256"
					}
				],
				"types": {
					"t_int256": {
						"encoding": "inplace",
						"label": "int256",
						"numberOfBytes": "32"
					}
				}
			},
			"userdoc": {
				"kind": "user",
				"methods": {},
				"version": 1
			}
		}
	}
}